{
  "contractName": "TheBible",
  "abi": [
    {
      "inputs": [],
      "payable": false,
      "stateMutability": "nonpayable",
      "type": "constructor"
    },
    {
      "anonymous": false,
      "inputs": [
        {
          "indexed": false,
          "internalType": "uint256",
          "name": "code",
          "type": "uint256"
        }
      ],
      "name": "LogError",
      "type": "event"
    },
    {
      "anonymous": false,
      "inputs": [
        {
          "indexed": false,
          "internalType": "string",
          "name": "description",
          "type": "string"
        }
      ],
      "name": "LogNewProvableQuery",
      "type": "event"
    },
    {
      "anonymous": false,
      "inputs": [
        {
          "indexed": false,
          "internalType": "string",
          "name": "book",
          "type": "string"
        },
        {
          "indexed": false,
          "internalType": "string",
          "name": "chapter",
          "type": "string"
        },
        {
          "indexed": false,
          "internalType": "string",
          "name": "verse",
          "type": "string"
        }
      ],
      "name": "LogVerseAdded",
      "type": "event"
    },
    {
      "payable": true,
      "stateMutability": "payable",
      "type": "fallback"
    },
    {
      "constant": true,
      "inputs": [],
      "name": "owner",
      "outputs": [
        {
          "internalType": "address",
          "name": "",
          "type": "address"
        }
      ],
      "payable": false,
      "stateMutability": "view",
      "type": "function"
    },
    {
      "constant": true,
      "inputs": [],
      "name": "versePrice",
      "outputs": [
        {
          "internalType": "uint256",
          "name": "",
          "type": "uint256"
        }
      ],
      "payable": false,
      "stateMutability": "view",
      "type": "function"
    },
    {
      "constant": false,
      "inputs": [
        {
          "internalType": "string",
          "name": "concatenatedReference",
          "type": "string"
        }
      ],
      "name": "setVerse",
      "outputs": [],
      "payable": true,
      "stateMutability": "payable",
      "type": "function"
    },
    {
      "constant": false,
      "inputs": [
        {
          "internalType": "bytes32",
          "name": "myid",
          "type": "bytes32"
        },
        {
          "internalType": "string",
          "name": "result",
          "type": "string"
        }
      ],
      "name": "__callback",
      "outputs": [],
      "payable": false,
      "stateMutability": "nonpayable",
      "type": "function"
    },
    {
      "constant": false,
      "inputs": [
        {
          "internalType": "bytes32",
          "name": "_myid",
          "type": "bytes32"
        },
        {
          "internalType": "string",
          "name": "_result",
          "type": "string"
        },
        {
          "internalType": "bytes",
          "name": "_proof",
          "type": "bytes"
        }
      ],
      "name": "__callback",
      "outputs": [],
      "payable": false,
      "stateMutability": "nonpayable",
      "type": "function"
    },
    {
      "constant": true,
      "inputs": [
        {
          "internalType": "string",
          "name": "book",
          "type": "string"
        },
        {
          "internalType": "string",
          "name": "chapter",
          "type": "string"
        },
        {
          "internalType": "string",
          "name": "verse",
          "type": "string"
        }
      ],
      "name": "getVerse",
      "outputs": [
        {
          "internalType": "string",
          "name": "",
          "type": "string"
        }
      ],
      "payable": false,
      "stateMutability": "view",
      "type": "function"
    },
    {
      "constant": false,
      "inputs": [
        {
          "internalType": "uint256",
          "name": "_versePrice",
          "type": "uint256"
        }
      ],
      "name": "setVersePrice",
      "outputs": [],
      "payable": false,
      "stateMutability": "nonpayable",
      "type": "function"
    },
    {
      "constant": false,
      "inputs": [
        {
          "internalType": "uint256",
          "name": "_provableGasLimit",
          "type": "uint256"
        }
      ],
      "name": "setProvableGasLimit",
      "outputs": [],
      "payable": false,
      "stateMutability": "nonpayable",
      "type": "function"
    }
  ],
  "bytecode": "0x60806040526040518061084001604052806040518060400160405280600c81526020017f31204368726f6e69636c6573000000000000000000000000000000000000000081525081526020016040518060400160405280600d81526020017f3120436f72696e746869616e730000000000000000000000000000000000000081525081526020016040518060400160405280600681526020017f31204a6f686e000000000000000000000000000000000000000000000000000081525081526020016040518060400160405280600781526020017f31204b696e67730000000000000000000000000000000000000000000000000081525081526020016040518060400160405280600781526020017f312050657465720000000000000000000000000000000000000000000000000081525081526020016040518060400160405280600881526020017f312053616d75656c00000000000000000000000000000000000000000000000081525081526020016040518060400160405280600f81526020017f31205468657373616c6f6e69616e73000000000000000000000000000000000081525081526020016040518060400160405280600981526020017f312054696d6f746879000000000000000000000000000000000000000000000081525081526020016040518060400160405280600c81526020017f32204368726f6e69636c6573000000000000000000000000000000000000000081525081526020016040518060400160405280600d81526020017f3220436f72696e746869616e730000000000000000000000000000000000000081525081526020016040518060400160405280600681526020017f32204a6f686e000000000000000000000000000000000000000000000000000081525081526020016040518060400160405280600781526020017f32204b696e67730000000000000000000000000000000000000000000000000081525081526020016040518060400160405280600781526020017f322050657465720000000000000000000000000000000000000000000000000081525081526020016040518060400160405280600881526020017f322053616d75656c00000000000000000000000000000000000000000000000081525081526020016040518060400160405280600f81526020017f32205468657373616c6f6e69616e73000000000000000000000000000000000081525081526020016040518060400160405280600981526020017f322054696d6f746879000000000000000000000000000000000000000000000081525081526020016040518060400160405280600681526020017f33204a6f686e000000000000000000000000000000000000000000000000000081525081526020016040518060400160405280600481526020017f416374730000000000000000000000000000000000000000000000000000000081525081526020016040518060400160405280600481526020017f416d6f730000000000000000000000000000000000000000000000000000000081525081526020016040518060400160405280600a81526020017f436f6c6f737369616e730000000000000000000000000000000000000000000081525081526020016040518060400160405280600681526020017f44616e69656c000000000000000000000000000000000000000000000000000081525081526020016040518060400160405280600b81526020017f4465757465726f6e6f6d7900000000000000000000000000000000000000000081525081526020016040518060400160405280600c81526020017f4563636c6573696173746573000000000000000000000000000000000000000081525081526020016040518060400160405280600981526020017f457068657369616e73000000000000000000000000000000000000000000000081525081526020016040518060400160405280600681526020017f457374686572000000000000000000000000000000000000000000000000000081525081526020016040518060400160405280600681526020017f45786f647573000000000000000000000000000000000000000000000000000081525081526020016040518060400160405280600781526020017f457a656b69656c0000000000000000000000000000000000000000000000000081525081526020016040518060400160405280600481526020017f457a72610000000000000000000000000000000000000000000000000000000081525081526020016040518060400160405280600981526020017f47616c617469616e73000000000000000000000000000000000000000000000081525081526020016040518060400160405280600781526020017f47656e657369730000000000000000000000000000000000000000000000000081525081526020016040518060400160405280600881526020017f486162616b6b756b00000000000000000000000000000000000000000000000081525081526020016040518060400160405280600681526020017f486167676169000000000000000000000000000000000000000000000000000081525081526020016040518060400160405280600781526020017f486562726577730000000000000000000000000000000000000000000000000081525081526020016040518060400160405280600581526020017f486f73656100000000000000000000000000000000000000000000000000000081525081526020016040518060400160405280600681526020017f497361696168000000000000000000000000000000000000000000000000000081525081526020016040518060400160405280600581526020017f4a616d657300000000000000000000000000000000000000000000000000000081525081526020016040518060400160405280600881526020017f4a6572656d69616800000000000000000000000000000000000000000000000081525081526020016040518060400160405280600381526020017f4a6f62000000000000000000000000000000000000000000000000000000000081525081526020016040518060400160405280600481526020017f4a6f656c0000000000000000000000000000000000000000000000000000000081525081526020016040518060400160405280600481526020017f4a6f686e0000000000000000000000000000000000000000000000000000000081525081526020016040518060400160405280600581526020017f4a6f6e616800000000000000000000000000000000000000000000000000000081525081526020016040518060400160405280600681526020017f4a6f73687561000000000000000000000000000000000000000000000000000081525081526020016040518060400160405280600481526020017f4a7564650000000000000000000000000000000000000000000000000000000081525081526020016040518060400160405280600681526020017f4a7564676573000000000000000000000000000000000000000000000000000081525081526020016040518060400160405280600c81526020017f4c616d656e746174696f6e73000000000000000000000000000000000000000081525081526020016040518060400160405280600981526020017f4c6576697469637573000000000000000000000000000000000000000000000081525081526020016040518060400160405280600481526020017f4c756b650000000000000000000000000000000000000000000000000000000081525081526020016040518060400160405280600781526020017f4d616c616368690000000000000000000000000000000000000000000000000081525081526020016040518060400160405280600481526020017f4d61726b0000000000000000000000000000000000000000000000000000000081525081526020016040518060400160405280600781526020017f4d6174746865770000000000000000000000000000000000000000000000000081525081526020016040518060400160405280600581526020017f4d6963616800000000000000000000000000000000000000000000000000000081525081526020016040518060400160405280600581526020017f4e6168756d00000000000000000000000000000000000000000000000000000081525081526020016040518060400160405280600881526020017f4e6568656d69616800000000000000000000000000000000000000000000000081525081526020016040518060400160405280600781526020017f4e756d626572730000000000000000000000000000000000000000000000000081525081526020016040518060400160405280600781526020017f4f6261646961680000000000000000000000000000000000000000000000000081525081526020016040518060400160405280600881526020017f5068696c656d6f6e00000000000000000000000000000000000000000000000081525081526020016040518060400160405280600b81526020017f5068696c69707069616e7300000000000000000000000000000000000000000081525081526020016040518060400160405280600881526020017f50726f766572627300000000000000000000000000000000000000000000000081525081526020016040518060400160405280600681526020017f5073616c6d73000000000000000000000000000000000000000000000000000081525081526020016040518060400160405280600a81526020017f526576656c6174696f6e0000000000000000000000000000000000000000000081525081526020016040518060400160405280600681526020017f526f6d616e73000000000000000000000000000000000000000000000000000081525081526020016040518060400160405280600481526020017f527574680000000000000000000000000000000000000000000000000000000081525081526020016040518060400160405280600f81526020017f536f6e67206f6620536f6c6f6d6f6e000000000000000000000000000000000081525081526020016040518060400160405280600581526020017f546974757300000000000000000000000000000000000000000000000000000081525081526020016040518060400160405280600981526020017f5a6563686172696168000000000000000000000000000000000000000000000081525081526020016040518060400160405280600981526020017f5a657068616e6961680000000000000000000000000000000000000000000000815250815250600a90604262000f5692919062000fc4565b5034801562000f6457600080fd5b5066354a6ba7a1800060068190555033600860006101000a81548173ffffffffffffffffffffffffffffffffffffffff021916908373ffffffffffffffffffffffffffffffffffffffff1602179055506207a1206009819055506200114a565b82604281019282156200100b579160200282015b828111156200100a57825182908051906020019062000ff99291906200101e565b509160200191906001019062000fd8565b5b5090506200101a9190620010a5565b5090565b828054600181600116156101000203166002900490600052602060002090601f016020900481019282601f106200106157805160ff191683800117855562001092565b8280016001018555821562001092579182015b828111156200109157825182559160200191906001019062001074565b5b509050620010a19190620010d6565b5090565b620010d391905b80821115620010cf5760008181620010c59190620010fe565b50600101620010ac565b5090565b90565b620010fb91905b80821115620010f7576000816000905550600101620010dd565b5090565b90565b50805460018160011615610100020316600290046000825580601f1062001126575062001147565b601f016020900490600052602060002090810190620011469190620010d6565b5b50565b612b82806200115a6000396000f3fe60806040526004361061007b5760003560e01c80638f0ea0bc1161004e5780638f0ea0bc14610468578063b80ffa23146104a3578063bb2c2ee314610712578063edafdb821461073d5761007b565b806327dc297e1461019b57806338bbfa501461026d5780637be98cdf146103d65780638da5cb5b14610411575b6006543410156100c2577f15aca0c4ae6bb11d153498ed393d51c24d71a3bcb5f8ccd157eb03b9ee71985760036040518082815260200191505060405180910390a1610199565b600061011e6040518060400160405280600381526020017f55524c00000000000000000000000000000000000000000000000000000000008152506040518060600160405280603881526020016129c5603891396009546107f8565b90507fc4dc360d0a9c0677a3379ae0a3d81e887f761e65fdf3d7e00859d1bcd3c473896040518080602001828103825260348152602001806129fd6034913960400191505060405180910390a160016007600083815260200190815260200160002060006101000a81548160ff021916908315150217905550505b005b3480156101a757600080fd5b5061026b600480360360408110156101be57600080fd5b8101908080359060200190929190803590602001906401000000008111156101e557600080fd5b8201836020820111156101f757600080fd5b8035906020019184600183028401116401000000008311171561021957600080fd5b91908080601f016020809104026020016040519081016040528093929190818152602001838380828437600081840152601f19601f820116905080830192505050505050509192919290505050610d4c565b005b34801561027957600080fd5b506103d46004803603606081101561029057600080fd5b8101908080359060200190929190803590602001906401000000008111156102b757600080fd5b8201836020820111156102c957600080fd5b803590602001918460018302840111640100000000831117156102eb57600080fd5b91908080601f016020809104026020016040519081016040528093929190818152602001838380828437600081840152601f19601f8201169050808301925050505050505091929192908035906020019064010000000081111561034e57600080fd5b82018360208201111561036057600080fd5b8035906020019184600183028401116401000000008311171561038257600080fd5b91908080601f016020809104026020016040519081016040528093929190818152602001838380828437600081840152601f19601f820116905080830192505050505050509192919290505050611344565b005b3480156103e257600080fd5b5061040f600480360360208110156103f957600080fd5b8101908080359060200190929190505050611367565b005b34801561041d57600080fd5b50610426611417565b604051808273ffffffffffffffffffffffffffffffffffffffff1673ffffffffffffffffffffffffffffffffffffffff16815260200191505060405180910390f35b34801561047457600080fd5b506104a16004803603602081101561048b57600080fd5b810190808035906020019092919050505061143d565b005b3480156104af57600080fd5b50610697600480360360608110156104c657600080fd5b81019080803590602001906401000000008111156104e357600080fd5b8201836020820111156104f557600080fd5b8035906020019184600183028401116401000000008311171561051757600080fd5b91908080601f016020809104026020016040519081016040528093929190818152602001838380828437600081840152601f19601f8201169050808301925050505050505091929192908035906020019064010000000081111561057a57600080fd5b82018360208201111561058c57600080fd5b803590602001918460018302840111640100000000831117156105ae57600080fd5b91908080601f016020809104026020016040519081016040528093929190818152602001838380828437600081840152601f19601f8201169050808301925050505050505091929192908035906020019064010000000081111561061157600080fd5b82018360208201111561062357600080fd5b8035906020019184600183028401116401000000008311171561064557600080fd5b91908080601f016020809104026020016040519081016040528093929190818152602001838380828437600081840152601f19601f8201169050808301925050505050505091929192905050506114ed565b6040518080602001828103825283818151815260200191508051906020019080838360005b838110156106d75780820151818401526020810190506106bc565b50505050905090810190601f1680156107045780820380516001836020036101000a031916815260200191505b509250505060405180910390f35b34801561071e57600080fd5b506107276116c8565b6040518082815260200191505060405180910390f35b6107f66004803603602081101561075357600080fd5b810190808035906020019064010000000081111561077057600080fd5b82018360208201111561078257600080fd5b803590602001918460018302840111640100000000831117156107a457600080fd5b91908080601f016020809104026020016040519081016040528093929190818152602001838380828437600081840152601f19601f8201169050808301925050505050505091929192905050506116ce565b005b60008073ffffffffffffffffffffffffffffffffffffffff16600160009054906101000a900473ffffffffffffffffffffffffffffffffffffffff1673ffffffffffffffffffffffffffffffffffffffff1614806108805750600061087e600160009054906101000a900473ffffffffffffffffffffffffffffffffffffffff16611960565b145b156108915761088f600061196b565b505b600160009054906101000a900473ffffffffffffffffffffffffffffffffffffffff1673ffffffffffffffffffffffffffffffffffffffff166338cc48316040518163ffffffff1660e01b8152600401602060405180830381600087803b1580156108fb57600080fd5b505af115801561090f573d6000803e3d6000fd5b505050506040513d602081101561092557600080fd5b810190808051906020019092919050505073ffffffffffffffffffffffffffffffffffffffff166000809054906101000a900473ffffffffffffffffffffffffffffffffffffffff1673ffffffffffffffffffffffffffffffffffffffff1614610a6e57600160009054906101000a900473ffffffffffffffffffffffffffffffffffffffff1673ffffffffffffffffffffffffffffffffffffffff166338cc48316040518163ffffffff1660e01b8152600401602060405180830381600087803b1580156109f357600080fd5b505af1158015610a07573d6000803e3d6000fd5b505050506040513d6020811015610a1d57600080fd5b81019080805190602001909291905050506000806101000a81548173ffffffffffffffffffffffffffffffffffffffff021916908373ffffffffffffffffffffffffffffffffffffffff1602179055505b60008060009054906101000a900473ffffffffffffffffffffffffffffffffffffffff1673ffffffffffffffffffffffffffffffffffffffff16632ef3accc86856040518363ffffffff1660e01b81526004018080602001838152602001828103825284818151815260200191508051906020019080838360005b83811015610b04578082015181840152602081019050610ae9565b50505050905090810190601f168015610b315780820380516001836020036101000a031916815260200191505b509350505050602060405180830381600087803b158015610b5157600080fd5b505af1158015610b65573d6000803e3d6000fd5b505050506040513d6020811015610b7b57600080fd5b81019080805190602001909291905050509050823a02670de0b6b3a764000001811115610bae576000801b915050610d45565b6000809054906101000a900473ffffffffffffffffffffffffffffffffffffffff1673ffffffffffffffffffffffffffffffffffffffff1663c51be90f8260008888886040518663ffffffff1660e01b8152600401808581526020018060200180602001848152602001838103835286818151815260200191508051906020019080838360005b83811015610c50578082015181840152602081019050610c35565b50505050905090810190601f168015610c7d5780820380516001836020036101000a031916815260200191505b50838103825285818151815260200191508051906020019080838360005b83811015610cb6578082015181840152602081019050610c9b565b50505050905090810190601f168015610ce35780820380516001836020036101000a031916815260200191505b5096505050505050506020604051808303818588803b158015610d0557600080fd5b505af1158015610d19573d6000803e3d6000fd5b50505050506040513d6020811015610d3057600080fd5b81019080805190602001909291905050509150505b9392505050565b610d5461197c565b73ffffffffffffffffffffffffffffffffffffffff163373ffffffffffffffffffffffffffffffffffffffff1614610dd7576040517f08c379a000000000000000000000000000000000000000000000000000000000815260040180806020018281038252602881526020018061299d6028913960400191505060405180910390fd5b600115156007600084815260200190815260200160002060009054906101000a900460ff16151514610e54576040517f08c379a0000000000000000000000000000000000000000000000000000000008152600401808060200182810382526025815260200180612ab46025913960400191505060405180910390fd5b6007600083815260200190815260200160002060006101000a81549060ff021916905560001515610e8482611c99565b151514610ef9576040517f08c379a000000000000000000000000000000000000000000000000000000000815260040180806020018281038252601e8152602001807f5468652050726f7661626c6520726573756c742077617320656d7074792e000081525060200191505060405180910390fd5b610f01612896565b610f096128c3565b610f1283611ca6565b905060008090505b6004811015610ffe57610f2b6128c3565b610f7b610f6c6040518060400160405280600381526020017f2d2d2d0000000000000000000000000000000000000000000000000000000000815250611ca6565b84611cd490919063ffffffff16565b905060011515610f92610f8d83611cee565b611c99565b15151415610fdb577f15aca0c4ae6bb11d153498ed393d51c24d71a3bcb5f8ccd157eb03b9ee71985760026040518082815260200191505060405180910390a150505050611340565b80848360048110610fe857fe5b6020020181905250508080600101915050610f1a565b50606061101b8360006004811061101157fe5b6020020151611cee565b905060606110398460016004811061102f57fe5b6020020151611cee565b905060606110578560026004811061104d57fe5b6020020151611cee565b905060606110758660036004811061106b57fe5b6020020151611cee565b9050806005856040518082805190602001908083835b602083106110ae578051825260208201915060208101905060208303925061108b565b6001836020036101000a0380198251168184511680821785525050505050509050019150509081526020016040518091039020846040518082805190602001908083835b6020831061111557805182526020820191506020810190506020830392506110f2565b6001836020036101000a0380198251168184511680821785525050505050509050019150509081526020016040518091039020836040518082805190602001908083835b6020831061117c5780518252602082019150602081019050602083039250611159565b6001836020036101000a038019825116818451168082178552505050505050905001915050908152602001604051809103902090805190602001906111c29291906128dd565b507f7ac2825bcbf294581f9f775de85b439b93052efd5671ad84c6ea98316d18a3f684848460405180806020018060200180602001848103845287818151815260200191508051906020019080838360005b8381101561122f578082015181840152602081019050611214565b50505050905090810190601f16801561125c5780820380516001836020036101000a031916815260200191505b50848103835286818151815260200191508051906020019080838360005b8381101561129557808201518184015260208101905061127a565b50505050905090810190601f1680156112c25780820380516001836020036101000a031916815260200191505b50848103825285818151815260200191508051906020019080838360005b838110156112fb5780820151818401526020810190506112e0565b50505050905090810190601f1680156113285780820380516001836020036101000a031916815260200191505b50965050505050505060405180910390a15050505050505b5050565b6000801b600360008060001b815260200190815260200160002081905550505050565b600860009054906101000a900473ffffffffffffffffffffffffffffffffffffffff1673ffffffffffffffffffffffffffffffffffffffff163373ffffffffffffffffffffffffffffffffffffffff161461140d576040517f08c379a000000000000000000000000000000000000000000000000000000000815260040180806020018281038252603a815260200180612a31603a913960400191505060405180910390fd5b8060098190555050565b600860009054906101000a900473ffffffffffffffffffffffffffffffffffffffff1681565b600860009054906101000a900473ffffffffffffffffffffffffffffffffffffffff1673ffffffffffffffffffffffffffffffffffffffff163373ffffffffffffffffffffffffffffffffffffffff16146114e3576040517f08c379a000000000000000000000000000000000000000000000000000000000815260040180806020018281038252603a815260200180612a31603a913960400191505060405180910390fd5b8060068190555050565b60606005846040518082805190602001908083835b602083106115255780518252602082019150602081019050602083039250611502565b6001836020036101000a0380198251168184511680821785525050505050509050019150509081526020016040518091039020836040518082805190602001908083835b6020831061158c5780518252602082019150602081019050602083039250611569565b6001836020036101000a0380198251168184511680821785525050505050509050019150509081526020016040518091039020826040518082805190602001908083835b602083106115f357805182526020820191506020810190506020830392506115d0565b6001836020036101000a03801982511681845116808217855250505050505090500191505090815260200160405180910390208054600181600116156101000203166002900480601f0160208091040260200160405190810160405280929190818152602001828054600181600116156101000203166002900480156116ba5780601f1061168f576101008083540402835291602001916116ba565b820191906000526020600020905b81548152906001019060200180831161169d57829003601f168201915b505050505090509392505050565b60065481565b600654341015611729576040517f08c379a0000000000000000000000000000000000000000000000000000000008152600401808060200182810382526049815260200180612a6b6049913960600191505060405180910390fd5b3073ffffffffffffffffffffffffffffffffffffffff163161177f6040518060400160405280600381526020017f55524c0000000000000000000000000000000000000000000000000000000000815250611d50565b111561180d577fc4dc360d0a9c0677a3379ae0a3d81e887f761e65fdf3d7e00859d1bcd3c47389604051808060200182810382526051815260200180612ad96051913960600191505060405180910390a17f15aca0c4ae6bb11d153498ed393d51c24d71a3bcb5f8ccd157eb03b9ee71985760016040518082815260200191505060405180910390a161195d565b60006118e26040518060400160405280600381526020017f55524c00000000000000000000000000000000000000000000000000000000008152506118da6118896040518060400160405280600e81526020017f292e70726f7661626c6554657874000000000000000000000000000000000000815250611ca6565b6118cc6118c761189888611ca6565b6118b9604051806060016040528060248152602001612b2a60249139611ca6565b6120e190919063ffffffff16565b611ca6565b6120e190919063ffffffff16565b6009546107f8565b90507fc4dc360d0a9c0677a3379ae0a3d81e887f761e65fdf3d7e00859d1bcd3c473896040518080602001828103825260348152602001806129fd6034913960400191505060405180910390a160016007600083815260200190815260200160002060006101000a81548160ff021916908315150217905550505b50565b6000813b9050919050565b6000611975612163565b9050919050565b60008073ffffffffffffffffffffffffffffffffffffffff16600160009054906101000a900473ffffffffffffffffffffffffffffffffffffffff1673ffffffffffffffffffffffffffffffffffffffff161480611a0457506000611a02600160009054906101000a900473ffffffffffffffffffffffffffffffffffffffff16611960565b145b15611a1557611a13600061196b565b505b600160009054906101000a900473ffffffffffffffffffffffffffffffffffffffff1673ffffffffffffffffffffffffffffffffffffffff166338cc48316040518163ffffffff1660e01b8152600401602060405180830381600087803b158015611a7f57600080fd5b505af1158015611a93573d6000803e3d6000fd5b505050506040513d6020811015611aa957600080fd5b810190808051906020019092919050505073ffffffffffffffffffffffffffffffffffffffff166000809054906101000a900473ffffffffffffffffffffffffffffffffffffffff1673ffffffffffffffffffffffffffffffffffffffff1614611bf257600160009054906101000a900473ffffffffffffffffffffffffffffffffffffffff1673ffffffffffffffffffffffffffffffffffffffff166338cc48316040518163ffffffff1660e01b8152600401602060405180830381600087803b158015611b7757600080fd5b505af1158015611b8b573d6000803e3d6000fd5b505050506040513d6020811015611ba157600080fd5b81019080805190602001909291905050506000806101000a81548173ffffffffffffffffffffffffffffffffffffffff021916908373ffffffffffffffffffffffffffffffffffffffff1602179055505b6000809054906101000a900473ffffffffffffffffffffffffffffffffffffffff1673ffffffffffffffffffffffffffffffffffffffff1663c281d19e6040518163ffffffff1660e01b815260040160206040518083038186803b158015611c5957600080fd5b505afa158015611c6d573d6000803e3d6000fd5b505050506040513d6020811015611c8357600080fd5b8101908080519060200190929190505050905090565b6000808251149050919050565b611cae6128c3565b600060208301905060405180604001604052808451815260200182815250915050919050565b611cdc6128c3565b611ce78383836126ba565b5092915050565b60608082600001516040519080825280601f01601f191660200182016040528015611d285781602001600182028038833980820191505090505b5090506000602082019050611d468185602001518660000151612758565b8192505050919050565b60008073ffffffffffffffffffffffffffffffffffffffff16600160009054906101000a900473ffffffffffffffffffffffffffffffffffffffff1673ffffffffffffffffffffffffffffffffffffffff161480611dd857506000611dd6600160009054906101000a900473ffffffffffffffffffffffffffffffffffffffff16611960565b145b15611de957611de7600061196b565b505b600160009054906101000a900473ffffffffffffffffffffffffffffffffffffffff1673ffffffffffffffffffffffffffffffffffffffff166338cc48316040518163ffffffff1660e01b8152600401602060405180830381600087803b158015611e5357600080fd5b505af1158015611e67573d6000803e3d6000fd5b505050506040513d6020811015611e7d57600080fd5b810190808051906020019092919050505073ffffffffffffffffffffffffffffffffffffffff166000809054906101000a900473ffffffffffffffffffffffffffffffffffffffff1673ffffffffffffffffffffffffffffffffffffffff1614611fc657600160009054906101000a900473ffffffffffffffffffffffffffffffffffffffff1673ffffffffffffffffffffffffffffffffffffffff166338cc48316040518163ffffffff1660e01b8152600401602060405180830381600087803b158015611f4b57600080fd5b505af1158015611f5f573d6000803e3d6000fd5b505050506040513d6020811015611f7557600080fd5b81019080805190602001909291905050506000806101000a81548173ffffffffffffffffffffffffffffffffffffffff021916908373ffffffffffffffffffffffffffffffffffffffff1602179055505b6000809054906101000a900473ffffffffffffffffffffffffffffffffffffffff1673ffffffffffffffffffffffffffffffffffffffff1663524f3889836040518263ffffffff1660e01b81526004018080602001828103825283818151815260200191508051906020019080838360005b83811015612053578082015181840152602081019050612038565b50505050905090810190601f1680156120805780820380516001836020036101000a031916815260200191505b5092505050602060405180830381600087803b15801561209f57600080fd5b505af11580156120b3573d6000803e3d6000fd5b505050506040513d60208110156120c957600080fd5b81019080805190602001909291905050509050919050565b60608082600001518460000151016040519080825280601f01601f1916602001820160405280156121215781602001600182028038833980820191505090505b509050600060208201905061213f8186602001518760000151612758565b6121588560000151820185602001518660000151612758565b819250505092915050565b600080612183731d3b2638a7cc9f2cb3d298a3da7a90b67e5506ed611960565b111561222557731d3b2638a7cc9f2cb3d298a3da7a90b67e5506ed600160006101000a81548173ffffffffffffffffffffffffffffffffffffffff021916908373ffffffffffffffffffffffffffffffffffffffff16021790555061221c6040518060400160405280600b81526020017f6574685f6d61696e6e65740000000000000000000000000000000000000000008152506127a1565b600190506126b7565b600061224473c03a2615d5efaf5f49f60b7bb6583eaec212fdf1611960565b11156122e65773c03a2615d5efaf5f49f60b7bb6583eaec212fdf1600160006101000a81548173ffffffffffffffffffffffffffffffffffffffff021916908373ffffffffffffffffffffffffffffffffffffffff1602179055506122dd6040518060400160405280600c81526020017f6574685f726f707374656e3300000000000000000000000000000000000000008152506127a1565b600190506126b7565b600061230573b7a07bcf2ba2f2703b24c0691b5278999c59ac7e611960565b11156123a75773b7a07bcf2ba2f2703b24c0691b5278999c59ac7e600160006101000a81548173ffffffffffffffffffffffffffffffffffffffff021916908373ffffffffffffffffffffffffffffffffffffffff16021790555061239e6040518060400160405280600981526020017f6574685f6b6f76616e00000000000000000000000000000000000000000000008152506127a1565b600190506126b7565b60006123c673146500cfd35b22e4a392fe0adc06de1a1368ed48611960565b11156124685773146500cfd35b22e4a392fe0adc06de1a1368ed48600160006101000a81548173ffffffffffffffffffffffffffffffffffffffff021916908373ffffffffffffffffffffffffffffffffffffffff16021790555061245f6040518060400160405280600b81526020017f6574685f72696e6b6562790000000000000000000000000000000000000000008152506127a1565b600190506126b7565b600061248773a2998efd205fb9d4b4963afb70778d6354ad3a41611960565b11156125295773a2998efd205fb9d4b4963afb70778d6354ad3a41600160006101000a81548173ffffffffffffffffffffffffffffffffffffffff021916908373ffffffffffffffffffffffffffffffffffffffff1602179055506125206040518060400160405280600a81526020017f6574685f676f65726c69000000000000000000000000000000000000000000008152506127a1565b600190506126b7565b6000612548736f485c8bf6fc43ea212e93bbf8ce046c7f1cb475611960565b11156125ac57736f485c8bf6fc43ea212e93bbf8ce046c7f1cb475600160006101000a81548173ffffffffffffffffffffffffffffffffffffffff021916908373ffffffffffffffffffffffffffffffffffffffff160217905550600190506126b7565b60006125cb7320e12a1f859b3feae5fb2a0a32c18f5a65555bbf611960565b111561262f577320e12a1f859b3feae5fb2a0a32c18f5a65555bbf600160006101000a81548173ffffffffffffffffffffffffffffffffffffffff021916908373ffffffffffffffffffffffffffffffffffffffff160217905550600190506126b7565b600061264e7351efaf4c8b3c9afbd5ab9f4bbc82784ab6ef8faa611960565b11156126b2577351efaf4c8b3c9afbd5ab9f4bbc82784ab6ef8faa600160006101000a81548173ffffffffffffffffffffffffffffffffffffffff021916908373ffffffffffffffffffffffffffffffffffffffff160217905550600190506126b7565b600090505b90565b6126c26128c3565b60006126e085600001518660200151866000015187602001516127bb565b9050846020015183602001818152505084602001518103836000018181525050846000015185602001510181141561272257600085600001818152505061274d565b8360000151836000015101856000018181510391508181525050836000015181018560200181815250505b829150509392505050565b5b6020811061277c5781518352602083019250602082019150602081039050612759565b60006001826020036101000a0390508019835116818551168181178652505050505050565b80600290805190602001906127b79291906128dd565b5050565b6000808490506000868511612886576020851161284057600060018660200360080260020a031960001b905060008186511690506000878a8a0103905060008386511690505b8281146128325781861061281f578a8a01965050505050505061288e565b8580600101965050838651169050612801565b85965050505050505061288e565b60008585209050600091505b8588038211612884576000868420905080821415612870578394505050505061288e565b60018401935050818060010192505061284c565b505b868601925050505b949350505050565b60405180608001604052806004905b6128ad61295d565b8152602001906001900390816128a55790505090565b604051806040016040528060008152602001600081525090565b828054600181600116156101000203166002900490600052602060002090601f016020900481019282601f1061291e57805160ff191683800117855561294c565b8280016001018555821561294c579182015b8281111561294b578251825591602001919060010190612930565b5b5090506129599190612977565b5090565b604051806040016040528060008152602001600081525090565b61299991905b8082111561299557600081600090555060010161297d565b5090565b9056fe43616c6c6261636b20646964206e6f74206f726967696e6174652066726f6d2050726f7661626c656a736f6e2868747470733a2f2f6170692e6f75726269626c652e696f2f7665727365732f72616e646f6d292e70726f7661626c655465787450726f7661626c65207175657279207761732073656e742c207374616e64696e6720627920666f722074686520616e737765722e4f6e6c792074686520636f6e74726163742063726561746f72206d617920696e746572616374207769746820746869732066756e6374696f6e2e506c656173652073656e64206174206c65617374206173206d75636820455448206173207468652076657273655072696365207769746820796f7572207472616e73616374696f6e2e4944206e6f7420696e636c7564656420696e2050726f7661626c652076616c69642049447350726f7661626c6520717565727920776173204e4f542073656e742c20706c656173652061646420736f6d652045544820746f20636f766572207468652050726f7661626c65207175657279206665652e6a736f6e2868747470733a2f2f6170692e6f75726269626c652e696f2f7665727365732fa265627a7a72315820e8f62d7893eda427d3af5508d8444d2b6c966a7056d9625621e827792fc2291464736f6c634300050c0032",
  "source": "/* solium-disable */\n\npragma solidity >= 0.5.0 < 0.6.0;\nimport './provableAPI_0.5.sol';\nimport './strings.sol';\n\ncontract TheBible is usingProvable {\n  using strings for *;\n\n  mapping(string => mapping(string => mapping(string => string))) verses;\n  uint public versePrice;\n  mapping(bytes32=>bool) validProvableQueryIds;\n  address public owner;\n  uint provableGasLimit;\n  /**\n   * At the point when all verses have been added, a user may read through all\n   * verses by querying [book][chapter][verse], wherein the chapter and verse\n   * are always incrementing numbers (as strings).\n   * \n   * Therefore, all books names are added upon instantiation. To get all verses for\n   * John, for example, a user need only query incrementing chapter and verse numbers\n   * until he receives an undefined value (once all verses have been added).\n   * */\n  string[66] books = [\n    '1 Chronicles',\n    '1 Corinthians',\n    '1 John',\n    '1 Kings',\n    '1 Peter',\n    '1 Samuel',\n    '1 Thessalonians',\n    '1 Timothy',\n    '2 Chronicles',\n    '2 Corinthians',\n    '2 John',\n    '2 Kings',\n    '2 Peter',\n    '2 Samuel',\n    '2 Thessalonians',\n    '2 Timothy',\n    '3 John',\n    'Acts',\n    'Amos',\n    'Colossians',\n    'Daniel',\n    'Deuteronomy',\n    'Ecclesiastes',\n    'Ephesians',\n    'Esther',\n    'Exodus',\n    'Ezekiel',\n    'Ezra',\n    'Galatians',\n    'Genesis',\n    'Habakkuk',\n    'Haggai',\n    'Hebrews',\n    'Hosea',\n    'Isaiah',\n    'James',\n    'Jeremiah',\n    'Job',\n    'Joel',\n    'John',\n    'Jonah',\n    'Joshua',\n    'Jude',\n    'Judges',\n    'Lamentations',\n    'Leviticus',\n    'Luke',\n    'Malachi',\n    'Mark',\n    'Matthew',\n    'Micah',\n    'Nahum',\n    'Nehemiah',\n    'Numbers',\n    'Obadiah',\n    'Philemon',\n    'Philippians',\n    'Proverbs',\n    'Psalms',\n    'Revelation',\n    'Romans',\n    'Ruth',\n    'Song of Solomon',\n    'Titus',\n    'Zechariah',\n    'Zephaniah'\n  ];\n\n  modifier onlyProvable() {\n    require(msg.sender == provable_cbAddress(), 'Callback did not originate from Provable');\n\n    _;\n  }\n  \n  modifier onlyOwner() {\n    require(msg.sender == owner, 'Only the contract creator may interact with this function.');\n    \n    _;\n  }\n\n  event LogNewProvableQuery(string description);\n  event LogError(uint code);\n  event LogVerseAdded(string book, string chapter, string verse);\n\n  constructor() public {\n    versePrice = 15000000000000000;\n    \n    owner = msg.sender;\n    \n    provableGasLimit = 500000;\n  }\n\n  function setVerse(string memory concatenatedReference) public payable {\n    require(\n      msg.value >= versePrice,\n      'Please send at least as much ETH as the versePrice with your transaction.'\n    );\n\n    if (provable_getPrice(\"URL\") > address(this).balance) {\n      emit LogNewProvableQuery(\n        \"Provable query was NOT sent, please add some ETH to cover the Provable query fee.\"\n      );\n      \n      emit LogError(1);\n\n      return;\n    }\n    \n    /**\n     * concatenatedReference should be in the format John/3/16\n     **/\n\n    bytes32 queryId = provable_query(\n      \"URL\",\n      \"json(https://api.ourbible.io/verses/\"\n        .toSlice()\n        .concat(concatenatedReference.toSlice())\n        .toSlice()\n        .concat(\").provableText\".toSlice()),\n      provableGasLimit\n    );\n    \n    emit LogNewProvableQuery(\"Provable query was sent, standing by for the answer.\");\n\n    validProvableQueryIds[queryId] = true;\n  }\n\n  function __callback(bytes32 myid, string memory result) public onlyProvable() {\n    require(\n      validProvableQueryIds[myid] == true,\n      'ID not included in Provable valid IDs'\n    );\n    \n    delete validProvableQueryIds[myid];\n\n    require(\n      checkTextIsEmpty(result) == false,\n      'The Provable result was empty.'\n    );\n    \n    /*\n     * result is in the form of: book---chapter---verse---text\n     */\n\n    strings.slice[4] memory parts;\n\n    strings.slice memory full = result.toSlice();\n\n    for (uint i = 0; i < 4; i++) {\n      strings.slice memory part = full.split(\"---\".toSlice());\n        \n      if (checkTextIsEmpty(part.toString()) == true) {\n        emit LogError(2);\n\n        return;\n      }\n      \n      parts[i] = part;\n    }\n    \n    string memory book = parts[0].toString();\n    string memory chapter = parts[1].toString();\n    string memory verse = parts[2].toString();\n    string memory text = parts[3].toString();\n\n    verses[book][chapter][verse] = text;\n    \n    emit LogVerseAdded(book, chapter, verse);\n  }\n\n  function checkTextIsEmpty(string memory _string) internal pure returns(bool) {\n    return bytes(_string).length == 0;\n  }\n\n  function getVerse(\n    string memory book,\n    string memory chapter,\n    string memory verse\n  ) public view returns(string memory) {\n    return verses[book][chapter][verse];\n  }\n  \n  function setVersePrice(uint _versePrice) public onlyOwner() {\n    versePrice = _versePrice;\n  }\n  \n  function setProvableGasLimit(uint _provableGasLimit) public onlyOwner() {\n    provableGasLimit = _provableGasLimit;\n  }\n  \n  function() payable external {\n    if (msg.value < versePrice) {\n      emit LogError(3);\n      \n      return;\n    }\n   \n    bytes32 queryId = provable_query(\n      \"URL\",\n      \"json(https://api.ourbible.io/verses/random).provableText\",\n      provableGasLimit\n    );\n    \n    emit LogNewProvableQuery(\"Provable query was sent, standing by for the answer.\");\n    \n    validProvableQueryIds[queryId] = true;\n  }\n}",
  "sourcePath": "/Users/johnwall/Desktop/CryptOpinion/OurBible/our-bible-contracts/contracts/TheBible.sol",
  "compiler": {
    "name": "solc",
    "version": "0.5.12+commit.7709ece9.Emscripten.clang"
  },
  "schemaVersion": "3.0.18",
  "updatedAt": "2020-01-15T23:32:29.675Z",
  "devdoc": {
    "methods": {}
  },
  "userdoc": {
    "methods": {}
  }
}