{
  "contractName": "TheBible",
  "abi": [
    {
      "inputs": [],
      "payable": false,
      "stateMutability": "nonpayable",
      "type": "constructor"
    },
    {
      "anonymous": false,
      "inputs": [
        {
          "indexed": false,
          "internalType": "uint256",
          "name": "code",
          "type": "uint256"
        }
      ],
      "name": "LogError",
      "type": "event"
    },
    {
      "anonymous": false,
      "inputs": [
        {
          "indexed": false,
          "internalType": "string",
          "name": "description",
          "type": "string"
        }
      ],
      "name": "LogNewProvableQuery",
      "type": "event"
    },
    {
      "anonymous": false,
      "inputs": [
        {
          "indexed": false,
          "internalType": "string",
          "name": "book",
          "type": "string"
        },
        {
          "indexed": false,
          "internalType": "string",
          "name": "chapter",
          "type": "string"
        },
        {
          "indexed": false,
          "internalType": "string",
          "name": "verse",
          "type": "string"
        }
      ],
      "name": "LogVerseAdded",
      "type": "event"
    },
    {
      "constant": true,
      "inputs": [],
      "name": "owner",
      "outputs": [
        {
          "internalType": "address",
          "name": "",
          "type": "address"
        }
      ],
      "payable": false,
      "stateMutability": "view",
      "type": "function"
    },
    {
      "constant": true,
      "inputs": [],
      "name": "versePrice",
      "outputs": [
        {
          "internalType": "uint256",
          "name": "",
          "type": "uint256"
        }
      ],
      "payable": false,
      "stateMutability": "view",
      "type": "function"
    },
    {
      "constant": false,
      "inputs": [
        {
          "internalType": "string",
          "name": "book",
          "type": "string"
        },
        {
          "internalType": "string",
          "name": "chapter",
          "type": "string"
        },
        {
          "internalType": "string",
          "name": "verse",
          "type": "string"
        },
        {
          "internalType": "string",
          "name": "concatenatedReference",
          "type": "string"
        }
      ],
      "name": "setVerse",
      "outputs": [],
      "payable": true,
      "stateMutability": "payable",
      "type": "function"
    },
    {
      "constant": false,
      "inputs": [
        {
          "internalType": "bytes32",
          "name": "myid",
          "type": "bytes32"
        },
        {
          "internalType": "string",
          "name": "result",
          "type": "string"
        }
      ],
      "name": "__callback",
      "outputs": [],
      "payable": false,
      "stateMutability": "nonpayable",
      "type": "function"
    },
    {
      "constant": false,
      "inputs": [
        {
          "internalType": "bytes32",
          "name": "_myid",
          "type": "bytes32"
        },
        {
          "internalType": "string",
          "name": "_result",
          "type": "string"
        },
        {
          "internalType": "bytes",
          "name": "_proof",
          "type": "bytes"
        }
      ],
      "name": "__callback",
      "outputs": [],
      "payable": false,
      "stateMutability": "nonpayable",
      "type": "function"
    },
    {
      "constant": true,
      "inputs": [
        {
          "internalType": "string",
          "name": "book",
          "type": "string"
        },
        {
          "internalType": "string",
          "name": "chapter",
          "type": "string"
        },
        {
          "internalType": "string",
          "name": "verse",
          "type": "string"
        }
      ],
      "name": "getVerse",
      "outputs": [
        {
          "internalType": "string",
          "name": "",
          "type": "string"
        }
      ],
      "payable": false,
      "stateMutability": "view",
      "type": "function"
    },
    {
      "constant": false,
      "inputs": [
        {
          "internalType": "uint256",
          "name": "_versePrice",
          "type": "uint256"
        }
      ],
      "name": "setVersePrice",
      "outputs": [],
      "payable": false,
      "stateMutability": "nonpayable",
      "type": "function"
    },
    {
      "constant": false,
      "inputs": [
        {
          "internalType": "uint256",
          "name": "_provableGasLimit",
          "type": "uint256"
        }
      ],
      "name": "setProvableGasLimit",
      "outputs": [],
      "payable": false,
      "stateMutability": "nonpayable",
      "type": "function"
    }
  ],
  "bytecode": "0x608060405234801561001057600080fd5b5066354a6ba7a1800060068190555033600860006101000a81548173ffffffffffffffffffffffffffffffffffffffff021916908373ffffffffffffffffffffffffffffffffffffffff1602179055506207a120600981905550612df1806100796000396000f3fe60806040526004361061007b5760003560e01c80638f0ea0bc1161004e5780638f0ea0bc1461034d578063b6bb5a7f14610388578063b80ffa2314610608578063bb2c2ee3146108775761007b565b806327dc297e1461008057806338bbfa50146101525780637be98cdf146102bb5780638da5cb5b146102f6575b600080fd5b34801561008c57600080fd5b50610150600480360360408110156100a357600080fd5b8101908080359060200190929190803590602001906401000000008111156100ca57600080fd5b8201836020820111156100dc57600080fd5b803590602001918460018302840111640100000000831117156100fe57600080fd5b91908080601f016020809104026020016040519081016040528093929190818152602001838380828437600081840152601f19601f8201169050808301925050505050505091929192905050506108a2565b005b34801561015e57600080fd5b506102b96004803603606081101561017557600080fd5b81019080803590602001909291908035906020019064010000000081111561019c57600080fd5b8201836020820111156101ae57600080fd5b803590602001918460018302840111640100000000831117156101d057600080fd5b91908080601f016020809104026020016040519081016040528093929190818152602001838380828437600081840152601f19601f8201169050808301925050505050505091929192908035906020019064010000000081111561023357600080fd5b82018360208201111561024557600080fd5b8035906020019184600183028401116401000000008311171561026757600080fd5b91908080601f016020809104026020016040519081016040528093929190818152602001838380828437600081840152601f19601f820116905080830192505050505050509192919290505050610e77565b005b3480156102c757600080fd5b506102f4600480360360208110156102de57600080fd5b8101908080359060200190929190505050610e9a565b005b34801561030257600080fd5b5061030b610f4a565b604051808273ffffffffffffffffffffffffffffffffffffffff1673ffffffffffffffffffffffffffffffffffffffff16815260200191505060405180910390f35b34801561035957600080fd5b506103866004803603602081101561037057600080fd5b8101908080359060200190929190505050610f70565b005b6106066004803603608081101561039e57600080fd5b81019080803590602001906401000000008111156103bb57600080fd5b8201836020820111156103cd57600080fd5b803590602001918460018302840111640100000000831117156103ef57600080fd5b91908080601f016020809104026020016040519081016040528093929190818152602001838380828437600081840152601f19601f8201169050808301925050505050505091929192908035906020019064010000000081111561045257600080fd5b82018360208201111561046457600080fd5b8035906020019184600183028401116401000000008311171561048657600080fd5b91908080601f016020809104026020016040519081016040528093929190818152602001838380828437600081840152601f19601f820116905080830192505050505050509192919290803590602001906401000000008111156104e957600080fd5b8201836020820111156104fb57600080fd5b8035906020019184600183028401116401000000008311171561051d57600080fd5b91908080601f016020809104026020016040519081016040528093929190818152602001838380828437600081840152601f19601f8201169050808301925050505050505091929192908035906020019064010000000081111561058057600080fd5b82018360208201111561059257600080fd5b803590602001918460018302840111640100000000831117156105b457600080fd5b91908080601f016020809104026020016040519081016040528093929190818152602001838380828437600081840152601f19601f820116905080830192505050505050509192919290505050611020565b005b34801561061457600080fd5b506107fc6004803603606081101561062b57600080fd5b810190808035906020019064010000000081111561064857600080fd5b82018360208201111561065a57600080fd5b8035906020019184600183028401116401000000008311171561067c57600080fd5b91908080601f016020809104026020016040519081016040528093929190818152602001838380828437600081840152601f19601f820116905080830192505050505050509192919290803590602001906401000000008111156106df57600080fd5b8201836020820111156106f157600080fd5b8035906020019184600183028401116401000000008311171561071357600080fd5b91908080601f016020809104026020016040519081016040528093929190818152602001838380828437600081840152601f19601f8201169050808301925050505050505091929192908035906020019064010000000081111561077657600080fd5b82018360208201111561078857600080fd5b803590602001918460018302840111640100000000831117156107aa57600080fd5b91908080601f016020809104026020016040519081016040528093929190818152602001838380828437600081840152601f19601f8201169050808301925050505050505091929192905050506114b1565b6040518080602001828103825283818151815260200191508051906020019080838360005b8381101561083c578082015181840152602081019050610821565b50505050905090810190601f1680156108695780820380516001836020036101000a031916815260200191505b509250505060405180910390f35b34801561088357600080fd5b5061088c61168c565b6040518082815260200191505060405180910390f35b6108aa611692565b73ffffffffffffffffffffffffffffffffffffffff163373ffffffffffffffffffffffffffffffffffffffff161461092d576040517f08c379a0000000000000000000000000000000000000000000000000000000008152600401808060200182810382526028815260200180612c236028913960400191505060405180910390fd5b600115156007600084815260200190815260200160002060009054906101000a900460ff161515146109aa576040517f08c379a0000000000000000000000000000000000000000000000000000000008152600401808060200182810382526025815260200180612d026025913960400191505060405180910390fd5b600015156109b7826119af565b151514610a2c576040517f08c379a000000000000000000000000000000000000000000000000000000000815260040180806020018281038252601e8152602001807f5468652050726f7661626c6520726573756c742077617320656d7074792e000081525060200191505060405180910390fd5b610a34612b1c565b610a3c612b49565b610a45836119bc565b905060008090505b6004811015610b3157610a5e612b49565b610aae610a9f6040518060400160405280600381526020017f2d2d2d00000000000000000000000000000000000000000000000000000000008152506119bc565b846119ea90919063ffffffff16565b905060011515610ac5610ac083611a04565b6119af565b15151415610b0e577f15aca0c4ae6bb11d153498ed393d51c24d71a3bcb5f8ccd157eb03b9ee71985760026040518082815260200191505060405180910390a150505050610e73565b80848360048110610b1b57fe5b6020020181905250508080600101915050610a4d565b506060610b4e83600060048110610b4457fe5b6020020151611a04565b90506060610b6c84600160048110610b6257fe5b6020020151611a04565b90506060610b8a85600260048110610b8057fe5b6020020151611a04565b90506060610ba886600360048110610b9e57fe5b6020020151611a04565b9050806005856040518082805190602001908083835b60208310610be15780518252602082019150602081019050602083039250610bbe565b6001836020036101000a0380198251168184511680821785525050505050509050019150509081526020016040518091039020846040518082805190602001908083835b60208310610c485780518252602082019150602081019050602083039250610c25565b6001836020036101000a0380198251168184511680821785525050505050509050019150509081526020016040518091039020836040518082805190602001908083835b60208310610caf5780518252602082019150602081019050602083039250610c8c565b6001836020036101000a03801982511681845116808217855250505050505090500191505090815260200160405180910390209080519060200190610cf5929190612b63565b507f7ac2825bcbf294581f9f775de85b439b93052efd5671ad84c6ea98316d18a3f684848460405180806020018060200180602001848103845287818151815260200191508051906020019080838360005b83811015610d62578082015181840152602081019050610d47565b50505050905090810190601f168015610d8f5780820380516001836020036101000a031916815260200191505b50848103835286818151815260200191508051906020019080838360005b83811015610dc8578082015181840152602081019050610dad565b50505050905090810190601f168015610df55780820380516001836020036101000a031916815260200191505b50848103825285818151815260200191508051906020019080838360005b83811015610e2e578082015181840152602081019050610e13565b50505050905090810190601f168015610e5b5780820380516001836020036101000a031916815260200191505b50965050505050505060405180910390a15050505050505b5050565b6000801b600360008060001b815260200190815260200160002081905550505050565b600860009054906101000a900473ffffffffffffffffffffffffffffffffffffffff1673ffffffffffffffffffffffffffffffffffffffff163373ffffffffffffffffffffffffffffffffffffffff1614610f40576040517f08c379a000000000000000000000000000000000000000000000000000000000815260040180806020018281038252603a815260200180612c7f603a913960400191505060405180910390fd5b8060098190555050565b600860009054906101000a900473ffffffffffffffffffffffffffffffffffffffff1681565b600860009054906101000a900473ffffffffffffffffffffffffffffffffffffffff1673ffffffffffffffffffffffffffffffffffffffff163373ffffffffffffffffffffffffffffffffffffffff1614611016576040517f08c379a000000000000000000000000000000000000000000000000000000000815260040180806020018281038252603a815260200180612c7f603a913960400191505060405180910390fd5b8060068190555050565b60065434101561107b576040517f08c379a0000000000000000000000000000000000000000000000000000000008152600401808060200182810382526049815260200180612cb96049913960600191505060405180910390fd5b600115156112576005866040518082805190602001908083835b602083106110b85780518252602082019150602081019050602083039250611095565b6001836020036101000a0380198251168184511680821785525050505050509050019150509081526020016040518091039020856040518082805190602001908083835b6020831061111f57805182526020820191506020810190506020830392506110fc565b6001836020036101000a0380198251168184511680821785525050505050509050019150509081526020016040518091039020846040518082805190602001908083835b602083106111865780518252602082019150602081019050602083039250611163565b6001836020036101000a03801982511681845116808217855250505050505090500191505090815260200160405180910390208054600181600116156101000203166002900480601f01602080910402602001604051908101604052809291908181526020018280546001816001161561010002031660029004801561124d5780601f106112225761010080835404028352916020019161124d565b820191906000526020600020905b81548152906001019060200180831161123057829003601f168201915b50505050506119af565b1515146112af576040517f08c379a0000000000000000000000000000000000000000000000000000000008152600401808060200182810382526021815260200180612d276021913960400191505060405180910390fd5b3073ffffffffffffffffffffffffffffffffffffffff16316113056040518060400160405280600381526020017f55524c0000000000000000000000000000000000000000000000000000000000815250611a66565b111561135b577fc4dc360d0a9c0677a3379ae0a3d81e887f761e65fdf3d7e00859d1bcd3c47389604051808060200182810382526051815260200180612d486051913960600191505060405180910390a16114ab565b7fc4dc360d0a9c0677a3379ae0a3d81e887f761e65fdf3d7e00859d1bcd3c47389604051808060200182810382526034815260200180612c4b6034913960400191505060405180910390a1600061147b6040518060400160405280600381526020017f55524c00000000000000000000000000000000000000000000000000000000008152506114736114226040518060400160405280600e81526020017f292e70726f7661626c65546578740000000000000000000000000000000000008152506119bc565b611465611460611431886119bc565b611452604051806060016040528060248152602001612d99602491396119bc565b611df790919063ffffffff16565b6119bc565b611df790919063ffffffff16565b600954611e79565b905060016007600083815260200190815260200160002060006101000a81548160ff021916908315150217905550505b50505050565b60606005846040518082805190602001908083835b602083106114e957805182526020820191506020810190506020830392506114c6565b6001836020036101000a0380198251168184511680821785525050505050509050019150509081526020016040518091039020836040518082805190602001908083835b60208310611550578051825260208201915060208101905060208303925061152d565b6001836020036101000a0380198251168184511680821785525050505050509050019150509081526020016040518091039020826040518082805190602001908083835b602083106115b75780518252602082019150602081019050602083039250611594565b6001836020036101000a03801982511681845116808217855250505050505090500191505090815260200160405180910390208054600181600116156101000203166002900480601f01602080910402602001604051908101604052809291908181526020018280546001816001161561010002031660029004801561167e5780601f106116535761010080835404028352916020019161167e565b820191906000526020600020905b81548152906001019060200180831161166157829003601f168201915b505050505090509392505050565b60065481565b60008073ffffffffffffffffffffffffffffffffffffffff16600160009054906101000a900473ffffffffffffffffffffffffffffffffffffffff1673ffffffffffffffffffffffffffffffffffffffff16148061171a57506000611718600160009054906101000a900473ffffffffffffffffffffffffffffffffffffffff166123cd565b145b1561172b5761172960006123d8565b505b600160009054906101000a900473ffffffffffffffffffffffffffffffffffffffff1673ffffffffffffffffffffffffffffffffffffffff166338cc48316040518163ffffffff1660e01b8152600401602060405180830381600087803b15801561179557600080fd5b505af11580156117a9573d6000803e3d6000fd5b505050506040513d60208110156117bf57600080fd5b810190808051906020019092919050505073ffffffffffffffffffffffffffffffffffffffff166000809054906101000a900473ffffffffffffffffffffffffffffffffffffffff1673ffffffffffffffffffffffffffffffffffffffff161461190857600160009054906101000a900473ffffffffffffffffffffffffffffffffffffffff1673ffffffffffffffffffffffffffffffffffffffff166338cc48316040518163ffffffff1660e01b8152600401602060405180830381600087803b15801561188d57600080fd5b505af11580156118a1573d6000803e3d6000fd5b505050506040513d60208110156118b757600080fd5b81019080805190602001909291905050506000806101000a81548173ffffffffffffffffffffffffffffffffffffffff021916908373ffffffffffffffffffffffffffffffffffffffff1602179055505b6000809054906101000a900473ffffffffffffffffffffffffffffffffffffffff1673ffffffffffffffffffffffffffffffffffffffff1663c281d19e6040518163ffffffff1660e01b815260040160206040518083038186803b15801561196f57600080fd5b505afa158015611983573d6000803e3d6000fd5b505050506040513d602081101561199957600080fd5b8101908080519060200190929190505050905090565b6000808251149050919050565b6119c4612b49565b600060208301905060405180604001604052808451815260200182815250915050919050565b6119f2612b49565b6119fd8383836123e9565b5092915050565b60608082600001516040519080825280601f01601f191660200182016040528015611a3e5781602001600182028038833980820191505090505b5090506000602082019050611a5c8185602001518660000151612487565b8192505050919050565b60008073ffffffffffffffffffffffffffffffffffffffff16600160009054906101000a900473ffffffffffffffffffffffffffffffffffffffff1673ffffffffffffffffffffffffffffffffffffffff161480611aee57506000611aec600160009054906101000a900473ffffffffffffffffffffffffffffffffffffffff166123cd565b145b15611aff57611afd60006123d8565b505b600160009054906101000a900473ffffffffffffffffffffffffffffffffffffffff1673ffffffffffffffffffffffffffffffffffffffff166338cc48316040518163ffffffff1660e01b8152600401602060405180830381600087803b158015611b6957600080fd5b505af1158015611b7d573d6000803e3d6000fd5b505050506040513d6020811015611b9357600080fd5b810190808051906020019092919050505073ffffffffffffffffffffffffffffffffffffffff166000809054906101000a900473ffffffffffffffffffffffffffffffffffffffff1673ffffffffffffffffffffffffffffffffffffffff1614611cdc57600160009054906101000a900473ffffffffffffffffffffffffffffffffffffffff1673ffffffffffffffffffffffffffffffffffffffff166338cc48316040518163ffffffff1660e01b8152600401602060405180830381600087803b158015611c6157600080fd5b505af1158015611c75573d6000803e3d6000fd5b505050506040513d6020811015611c8b57600080fd5b81019080805190602001909291905050506000806101000a81548173ffffffffffffffffffffffffffffffffffffffff021916908373ffffffffffffffffffffffffffffffffffffffff1602179055505b6000809054906101000a900473ffffffffffffffffffffffffffffffffffffffff1673ffffffffffffffffffffffffffffffffffffffff1663524f3889836040518263ffffffff1660e01b81526004018080602001828103825283818151815260200191508051906020019080838360005b83811015611d69578082015181840152602081019050611d4e565b50505050905090810190601f168015611d965780820380516001836020036101000a031916815260200191505b5092505050602060405180830381600087803b158015611db557600080fd5b505af1158015611dc9573d6000803e3d6000fd5b505050506040513d6020811015611ddf57600080fd5b81019080805190602001909291905050509050919050565b60608082600001518460000151016040519080825280601f01601f191660200182016040528015611e375781602001600182028038833980820191505090505b5090506000602082019050611e558186602001518760000151612487565b611e6e8560000151820185602001518660000151612487565b819250505092915050565b60008073ffffffffffffffffffffffffffffffffffffffff16600160009054906101000a900473ffffffffffffffffffffffffffffffffffffffff1673ffffffffffffffffffffffffffffffffffffffff161480611f0157506000611eff600160009054906101000a900473ffffffffffffffffffffffffffffffffffffffff166123cd565b145b15611f1257611f1060006123d8565b505b600160009054906101000a900473ffffffffffffffffffffffffffffffffffffffff1673ffffffffffffffffffffffffffffffffffffffff166338cc48316040518163ffffffff1660e01b8152600401602060405180830381600087803b158015611f7c57600080fd5b505af1158015611f90573d6000803e3d6000fd5b505050506040513d6020811015611fa657600080fd5b810190808051906020019092919050505073ffffffffffffffffffffffffffffffffffffffff166000809054906101000a900473ffffffffffffffffffffffffffffffffffffffff1673ffffffffffffffffffffffffffffffffffffffff16146120ef57600160009054906101000a900473ffffffffffffffffffffffffffffffffffffffff1673ffffffffffffffffffffffffffffffffffffffff166338cc48316040518163ffffffff1660e01b8152600401602060405180830381600087803b15801561207457600080fd5b505af1158015612088573d6000803e3d6000fd5b505050506040513d602081101561209e57600080fd5b81019080805190602001909291905050506000806101000a81548173ffffffffffffffffffffffffffffffffffffffff021916908373ffffffffffffffffffffffffffffffffffffffff1602179055505b60008060009054906101000a900473ffffffffffffffffffffffffffffffffffffffff1673ffffffffffffffffffffffffffffffffffffffff16632ef3accc86856040518363ffffffff1660e01b81526004018080602001838152602001828103825284818151815260200191508051906020019080838360005b8381101561218557808201518184015260208101905061216a565b50505050905090810190601f1680156121b25780820380516001836020036101000a031916815260200191505b509350505050602060405180830381600087803b1580156121d257600080fd5b505af11580156121e6573d6000803e3d6000fd5b505050506040513d60208110156121fc57600080fd5b81019080805190602001909291905050509050823a02670de0b6b3a76400000181111561222f576000801b9150506123c6565b6000809054906101000a900473ffffffffffffffffffffffffffffffffffffffff1673ffffffffffffffffffffffffffffffffffffffff1663c51be90f8260008888886040518663ffffffff1660e01b8152600401808581526020018060200180602001848152602001838103835286818151815260200191508051906020019080838360005b838110156122d15780820151818401526020810190506122b6565b50505050905090810190601f1680156122fe5780820380516001836020036101000a031916815260200191505b50838103825285818151815260200191508051906020019080838360005b8381101561233757808201518184015260208101905061231c565b50505050905090810190601f1680156123645780820380516001836020036101000a031916815260200191505b5096505050505050506020604051808303818588803b15801561238657600080fd5b505af115801561239a573d6000803e3d6000fd5b50505050506040513d60208110156123b157600080fd5b81019080805190602001909291905050509150505b9392505050565b6000813b9050919050565b60006123e26124d0565b9050919050565b6123f1612b49565b600061240f8560000151866020015186600001518760200151612a27565b9050846020015183602001818152505084602001518103836000018181525050846000015185602001510181141561245157600085600001818152505061247c565b8360000151836000015101856000018181510391508181525050836000015181018560200181815250505b829150509392505050565b5b602081106124ab5781518352602083019250602082019150602081039050612488565b60006001826020036101000a0390508019835116818551168181178652505050505050565b6000806124f0731d3b2638a7cc9f2cb3d298a3da7a90b67e5506ed6123cd565b111561259257731d3b2638a7cc9f2cb3d298a3da7a90b67e5506ed600160006101000a81548173ffffffffffffffffffffffffffffffffffffffff021916908373ffffffffffffffffffffffffffffffffffffffff1602179055506125896040518060400160405280600b81526020017f6574685f6d61696e6e6574000000000000000000000000000000000000000000815250612b02565b60019050612a24565b60006125b173c03a2615d5efaf5f49f60b7bb6583eaec212fdf16123cd565b11156126535773c03a2615d5efaf5f49f60b7bb6583eaec212fdf1600160006101000a81548173ffffffffffffffffffffffffffffffffffffffff021916908373ffffffffffffffffffffffffffffffffffffffff16021790555061264a6040518060400160405280600c81526020017f6574685f726f707374656e330000000000000000000000000000000000000000815250612b02565b60019050612a24565b600061267273b7a07bcf2ba2f2703b24c0691b5278999c59ac7e6123cd565b11156127145773b7a07bcf2ba2f2703b24c0691b5278999c59ac7e600160006101000a81548173ffffffffffffffffffffffffffffffffffffffff021916908373ffffffffffffffffffffffffffffffffffffffff16021790555061270b6040518060400160405280600981526020017f6574685f6b6f76616e0000000000000000000000000000000000000000000000815250612b02565b60019050612a24565b600061273373146500cfd35b22e4a392fe0adc06de1a1368ed486123cd565b11156127d55773146500cfd35b22e4a392fe0adc06de1a1368ed48600160006101000a81548173ffffffffffffffffffffffffffffffffffffffff021916908373ffffffffffffffffffffffffffffffffffffffff1602179055506127cc6040518060400160405280600b81526020017f6574685f72696e6b656279000000000000000000000000000000000000000000815250612b02565b60019050612a24565b60006127f473a2998efd205fb9d4b4963afb70778d6354ad3a416123cd565b11156128965773a2998efd205fb9d4b4963afb70778d6354ad3a41600160006101000a81548173ffffffffffffffffffffffffffffffffffffffff021916908373ffffffffffffffffffffffffffffffffffffffff16021790555061288d6040518060400160405280600a81526020017f6574685f676f65726c6900000000000000000000000000000000000000000000815250612b02565b60019050612a24565b60006128b5736f485c8bf6fc43ea212e93bbf8ce046c7f1cb4756123cd565b111561291957736f485c8bf6fc43ea212e93bbf8ce046c7f1cb475600160006101000a81548173ffffffffffffffffffffffffffffffffffffffff021916908373ffffffffffffffffffffffffffffffffffffffff16021790555060019050612a24565b60006129387320e12a1f859b3feae5fb2a0a32c18f5a65555bbf6123cd565b111561299c577320e12a1f859b3feae5fb2a0a32c18f5a65555bbf600160006101000a81548173ffffffffffffffffffffffffffffffffffffffff021916908373ffffffffffffffffffffffffffffffffffffffff16021790555060019050612a24565b60006129bb7351efaf4c8b3c9afbd5ab9f4bbc82784ab6ef8faa6123cd565b1115612a1f577351efaf4c8b3c9afbd5ab9f4bbc82784ab6ef8faa600160006101000a81548173ffffffffffffffffffffffffffffffffffffffff021916908373ffffffffffffffffffffffffffffffffffffffff16021790555060019050612a24565b600090505b90565b6000808490506000868511612af25760208511612aac57600060018660200360080260020a031960001b905060008186511690506000878a8a0103905060008386511690505b828114612a9e57818610612a8b578a8a019650505050505050612afa565b8580600101965050838651169050612a6d565b859650505050505050612afa565b60008585209050600091505b8588038211612af0576000868420905080821415612adc5783945050505050612afa565b600184019350508180600101925050612ab8565b505b868601925050505b949350505050565b8060029080519060200190612b18929190612b63565b5050565b60405180608001604052806004905b612b33612be3565b815260200190600190039081612b2b5790505090565b604051806040016040528060008152602001600081525090565b828054600181600116156101000203166002900490600052602060002090601f016020900481019282601f10612ba457805160ff1916838001178555612bd2565b82800160010185558215612bd2579182015b82811115612bd1578251825591602001919060010190612bb6565b5b509050612bdf9190612bfd565b5090565b604051806040016040528060008152602001600081525090565b612c1f91905b80821115612c1b576000816000905550600101612c03565b5090565b9056fe43616c6c6261636b20646964206e6f74206f726967696e6174652066726f6d2050726f7661626c6550726f7661626c65207175657279207761732073656e742c207374616e64696e6720627920666f722074686520616e737765722e4f6e6c792074686520636f6e74726163742063726561746f72206d617920696e746572616374207769746820746869732066756e6374696f6e2e506c656173652073656e64206174206c65617374206173206d75636820455448206173207468652076657273655072696365207769746820796f7572207472616e73616374696f6e2e4944206e6f7420696e636c7564656420696e2050726f7661626c652076616c6964204944735468652076657273652068617320616c7265616479206265656e2061646465642e50726f7661626c6520717565727920776173204e4f542073656e742c20706c656173652061646420736f6d652045544820746f20636f766572207468652050726f7661626c65207175657279206665652e6a736f6e2868747470733a2f2f6170692e6f75726269626c652e696f2f7665727365732fa265627a7a72315820120e0c63d0af81d9120216b91e21ea39b6a84bd6f2d94a67db37925e6926bb9764736f6c634300050c0032",
  "source": "/* solium-disable */\n\npragma solidity >= 0.5.0 < 0.6.0;\nimport './provableAPI_0.5.sol';\nimport './strings.sol';\n\ncontract TheBible is usingProvable {\n  using strings for *;\n\n  mapping(string => mapping(string => mapping(string => string))) verses;\n  uint public versePrice;\n  mapping(bytes32=>bool) validProvableQueryIds;\n  address public owner;\n  uint provableGasLimit;\n\n  modifier onlyProvable() {\n    require(msg.sender == provable_cbAddress(), 'Callback did not originate from Provable');\n\n    _;\n  }\n  \n  modifier onlyOwner() {\n    require(msg.sender == owner, 'Only the contract creator may interact with this function.');\n    \n    _;\n  }\n\n  event LogNewProvableQuery(string description);\n  event LogError(uint code);\n  event LogVerseAdded(string book, string chapter, string verse);\n\n  constructor() public {\n    versePrice = 15000000000000000;\n    \n    owner = msg.sender;\n    \n    provableGasLimit = 500000;\n  }\n\n  function setVerse(\n      string memory book,\n      string memory chapter,\n      string memory verse,\n      string memory concatenatedReference\n  ) public payable {\n    require(\n      msg.value >= versePrice,\n      'Please send at least as much ETH as the versePrice with your transaction.'\n    );\n\n    require(\n      checkTextIsEmpty(verses[book][chapter][verse]) == true,\n      'The verse has already been added.'\n    );\n\n    if (provable_getPrice(\"URL\") > address(this).balance) {\n      emit LogNewProvableQuery(\"Provable query was NOT sent, please add some ETH to cover the Provable query fee.\");\n\n      return;\n    }\n\n    emit LogNewProvableQuery(\"Provable query was sent, standing by for the answer.\");\n    \n    /**\n     * concatenatedReference should be in the format John/3/16\n     **/\n\n    bytes32 queryId = provable_query(\n      \"URL\",\n      \"json(https://api.ourbible.io/verses/\"\n        .toSlice()\n        .concat(concatenatedReference.toSlice())\n        .toSlice()\n        .concat(\").provableText\".toSlice()),\n      provableGasLimit\n    );\n\n    validProvableQueryIds[queryId] = true;\n  }\n\n  function __callback(bytes32 myid, string memory result) public onlyProvable() {\n    require(validProvableQueryIds[myid] == true, 'ID not included in Provable valid IDs');\n\n    require(\n      checkTextIsEmpty(result) == false,\n      'The Provable result was empty.'\n    );\n    \n    /*\n     * result is in the form of: book---chapter---verse---text\n     */\n\n    strings.slice[4] memory parts;\n\n    strings.slice memory full = result.toSlice();\n\n    for (uint i = 0; i < 4; i++) {\n      strings.slice memory part = full.split(\"---\".toSlice());\n        \n      if (checkTextIsEmpty(part.toString()) == true) {\n        emit LogError(2);\n\n        return;\n      }\n      \n      parts[i] = part;\n    }\n    \n    string memory book = parts[0].toString();\n    string memory chapter = parts[1].toString();\n    string memory verse = parts[2].toString();\n    string memory text = parts[3].toString();\n\n    verses[book][chapter][verse] = text;\n    \n    emit LogVerseAdded(book, chapter, verse);\n  }\n\n  function checkTextIsEmpty(string memory _string) internal pure returns(bool) {\n    return bytes(_string).length == 0;\n  }\n\n  function getVerse(\n    string memory book,\n    string memory chapter,\n    string memory verse\n  ) public view returns(string memory) {\n    return verses[book][chapter][verse];\n  }\n  \n  function setVersePrice(uint _versePrice) public onlyOwner() {\n    versePrice = _versePrice;\n  }\n  \n  function setProvableGasLimit(uint _provableGasLimit) public onlyOwner() {\n    provableGasLimit = _provableGasLimit;\n  }\n}",
  "sourcePath": "/Users/johnwall/Desktop/CryptOpinion/OurBible/our-bible-contracts/contracts/TheBible.sol",
  "compiler": {
    "name": "solc",
    "version": "0.5.12+commit.7709ece9.Emscripten.clang"
  },
  "schemaVersion": "3.0.18",
  "updatedAt": "2020-01-14T23:33:46.770Z",
  "devdoc": {
    "methods": {}
  },
  "userdoc": {
    "methods": {}
  }
}